:020000040000fa
:100000000200d2021003000000000002100b0000ea
:10001000000000021013000000000002101b00008e
:10002000000000021023000000000002102b00005e
:10003000000000021033000000000002103b00002e
:10004000000000021043000000000002104b0000fe
:10005000000000021053000000000002105b0000ce
:10006000000000021063000000000002106b00009e
:10007000000000021073000000000002107b00006e
:10008000000000021083000000000002108b00003e
:100090000000000208c3e4900002781a790280028e
:1000a000f0a3d8fcd9fa7a1b7b019000e478107990
:1000b000018015e493a3ad82ae838a828b83f0a383
:1000c000aa82ab838d828e83d8e9d9e7120572129a
:1000d00008e275d00075813f751c8075931e5392a0
:1000e000fe020096001000100000f800ffff001054
:1000f0000000ffe4936670130874019366700c08a7
:10010000740293667005087403936622c008c3e006
:1001100096f50808a3e096420808a3e0964208086e
:10012000a3e09645087001d3d00822c3e493960853
:100130007401939608740293960874039396226050
:1001400016080808c6c313c618c613c618c613c6b1
:1001500018c613c6d5e0ea22e026f008a3e036f080
:1001600008a3e036f008a3e036f022e056f608a334
:10017000e056f608a3e056f608a3e056f622e0f6ad
:1001800008a3e0f608a3e0f608a3e0f622c9c0e061
:10019000e7f20809e7f20809e7f20809e7f2d0e018
:1001a000f922e6f008a3e6f008a3e6f008a3e6f0db
:1001b00022cac0e0e6f30908dafad0e0fa22cac09f
:1001c000e0e2f30908dafad0e0fa22700422600dc6
:1001d00018c6c333c608c633c6d5e0f41822e47384
:1001e0005392fed083d082251cf8c51cc39824fbf3
:1001f000cef208e520f208e9c0e07908e709f20844
:10020000defad0e0f9eff208d0e0fed0e0f208ee3e
:10021000f208e473a81ce2fe08e208f520e9c0e059
:100220007908e208f709dffae208ffd0e0f9e2080e
:10023000c0e0e208c0e0881c5392fe22e584f20888
:10024000e585f222e208f584e2f585227402800059
:10025000c9c0e0e51cc399f51cc91201b1d0e0f991
:100260002274028000c9c0e0e51cc399f51cc912c4
:1002700001bed0e0f922d083d082ecc0e0edc0e036
:10028000eec0e0efc0e0e493a3fce493a3fde493ad
:10029000a3fee493a3ffef4e4d4c60151202f2ec67
:1002a00024fffced34fffdee34fffeef34ffff8052
:1002b000e5e493a3fce493a3fde493a3fee493a3fa
:1002c000ffef4e4d4c601512032fec24fffced3474
:1002d000fffdee34fffeef34ffff80e5d0e0ffd0fe
:1002e000e0fed0e0fdd0e0fce493a3c0e0e493c0e6
:1002f000e022c0e0c0f088f012012ba8f040071205
:1003000000f3a8f0701aa3a3a3a312012ba8f0a3d3
:10031000a3a3a34013d0f0d0e0d0e0d0e00202dcf1
:10032000a3a3a3a3a3a3a3a3a3a3d0f0d0e022c01d
:10033000e0c0f088f01200f3a8f0a3a3a3a3700b11
:10034000d0f0d0e0d0e0d0e00202dca3a3d0f0d027
:10035000e02275bc0075bc005392fe22800f8a8299
:100360008b835392fee0f5bda3aa82ab83ecf8ed3c
:10037000f9e824ff1ce934fffde84970e15392fedf
:1003800022e5bdf9e5bcfae9fb5392fe227400f5c3
:10039000d374022408f5d25392fe22a2afe433f8bc
:1003a000c2af5392fe906270e0a2e740f5e9c3331a
:1003b000906272f0906270e0d2e0f0e0a2e740fb61
:1003c000e8a2e092af2274fa1201e0a2af33f8c2c1
:1003d000afed900002f0eca3f0a37462f0a374738d
:1003e000f0a3e4f0e9a3f0a37412f0a37442f0ebdd
:1003f000906272f0ea906271f07400f5d575d402e3
:1004000075d601906270e0d2e1f0e0a2e740fbe82f
:10041000a2e092af7f010202145392fe906276e056
:1004200054706430700478038002780775c6807455
:1004300080659e70fa9062707408f088c790ff2cf7
:10044000e0f5f1a3e0f5f3a3e0f5f4a3e0f5f59012
:10045000ff2be0f8700b90ff3012049190ff0680a4
:100460000e740168701890ff0212049190ff30e042
:10047000f5f8a3e0f5fba3e0f5fca3e0f5faa2fe96
:10048000500ee5f1a2e14008e5ff543f4440f5ff7e
:1004900022e0f586a3e0f5c4a3e0f5c5a3e0f5c22c
:1004a00022c008c0098908750900740b7808120178
:1004b000cbfae5094480fbd009d0085392fe2274a0
:1004c000f71201e0909093e064bf7063e5c7f50810
:1004d00012035275c7007c937d007a007b90120353
:1004e0005c7c5d7d077aa37b9012035c909094e026
:1004f00014f5097f00801674032ffef91204a1ee93
:10050000c4540ff5c77c007d0812035c0fefc39540
:100510000940e48508c71203818a088b09a808a945
:1005200009909095e0687003a3e069703e8038e51b
:10053000c7f5087fa57e02eef91204a18a828b839b
:10054000eec4540ff5c778007908e02fffa3e82424
:10055000ff18e934fff9e84970f00eeec39430401b
:10056000d68508c7ef70047901800279007f040204
:100570000214e51c24ecf51c5392fe900001e0905f
:10058000001af0e59d541864107005e0a2e04035b3
:10059000e5c7f8790075c700909000e0640270012b
:1005a0000988c7e9a2e0501d1204bfe96017900056
:1005b000017403f0059290011be0f582a3e0f5833e
:1005c00005921201de120419900001e4f012038d6d
:1005d00012078912076d12018d780812024c12075a
:1005e000581205ed051c051c12089580fbeec0e0b5
:1005f000a81c1202611207a5051c051cd0e0fe22f2
:1006000074f71201e0151c151ca81c12023ce51c15
:1006100024ecf51ceafeebffee2404f584e43ff540
:10062000858e828f83780812017e900121780812ce
:10063000016b78081202760000000005000000003f
:100640000000002d07000009002d07000009015fd0
:100650000600000902b706000009032607920605f6
:1006600092780812017e0592900125780812010cfb
:100670004032120752f2087480f2087401f2e4f575
:1006800008f509780812024c1207581205ed051cee
:10069000051ce51c2414f51ca81c120244051c05ad
:1006a0001c02056d90011d78081201a2120752f27a
:1006b00008e4f208f280c890011d780812017ee576
:1006c000095407f9e50849701490011d78081201d2
:1006d0007e740b780812013fa90812039b0592e073
:1006e000f9ee2405fce43ffd059290011d78081207
:1006f000017e7402780812013faa08ab091203c6f2
:100700000592e0f508e4f509f50af50b059290016c
:100710001d78081201581207407402f208e4f2082a
:10072000f2f508020683120740740380820592e006
:10073000600912076d12018d02068375c90880fedb
:1007400012074422e4a81cf2087402f2087409f2a9
:1007500008221207447401227c007d00e51c24025b
:10076000faab93e51c2403f8e22404f922a81c74d4
:1007700080f2087404f2087409f208e4f2f508f54e
:1007800009f50af50b087408225392fe90ff2be03e
:10079000f87006900129e4f0227401687006900157
:1007a000297401f02274fa1201e0151c151ca81c12
:1007b00012023ce9fe8a828b83e51c2408f8e2fae7
:1007c00008e2fb0592900129e06020e06401604ba3
:1007d000a81c120244051c051c7f01020214e586b8
:1007e000a2e040fa5392fee0f5c1a3eeff74ff2fa2
:1007f0001e0470ea12088660d7e586a2e040fa8af5
:10080000828b835392fee0f5c1a3aa82ab8380e47e
:10081000a2f840fc5392fee0f5f9a374ff2e1e04eb
:1008200070ee12088660a9a2f840fc8a828b83537e
:1008300092fee0f5f9a3aa82ab8380e6c084c0856e
:100840008011e586a2e2500be5c18a828b83f0aa73
:1008500084ab851208866026e586a2e24004a2faef
:1008600050f68a848b85439201a30592900129e07a
:1008700060d0640170dda2fa50d9e5f980ccd08552
:10088000d0845392fe22ecf8edf9e824ff1ce93401
:10089000fffde849227c047d007a1b7b0012083ca6
:1008a00090001be05407f9a3e0fce9fdec4d600764
:1008b0007a1f7b0012083c7a1b7b00120600225331
:1008c00092fe2274fa1201e0151c151ceafeebffe1
:1008d000a81ceef208eff2aa1cab9379011208bf34
:1008e00080ee12009322ffffffffffffffffffffdd
:1008f000ffffffffffffffffffffffffffffffff08
:10090000fffffffffffffffffffffffffffffffff7
:10091000ffffffffffffffffffffffffffffffffe7
:10092000ffffffffffffffffffffffffffffffffd7
:100f000012010002000000205824feff0000010230
:100f1000030109021b0001010480250904000000ef
:100f2000fe01020409210d03e84000010104030948
:100f300004120342006c00750065006700690067d9
:100f400000610016034c006f007700200045006e22
:100f50000065007200670079000a03310032003337
:100f6000003400080344004600550000ffffffff67
:100f7000ffffffffffffffffffffffffffffffff81
:100f8000ffffffffffffffffffffffffffffffff71
:100f9000ffffffffffffffffffffffffffffffff61
:100fa000ffffffffffffffffffffffffffffffff51
:100fb000ffffffffffffffffffffffffffffffff41
:100fc000ffffffffffffffffffffffffffffffff31
:100fd000ffffffffffffffffffffffffffffffff21
:100fe000ffffffffffffffffffffffffffffffff11
:100ff000ffffffffffffffffffffffffffffffff01
:101000000211080230e9ffffffffff023d88ffffea
:10101000ffffff023ee0ffffffffff023f97ffffe2
:10102000ffffff022618ffffffffff023b4effffff
:10103000ffffffffffffffffffffff023f37ffff45
:10104000ffffff023ebbffffffffffffffffffffb2
:10105000ffffff0230cfffffffffffffffffffff9c
:10106000ffffffffffffffffffffff023cc5ffff8a
:10107000ffffff024009ffffffffff023d48ffffa8
:10108000ffffff0230f4ffffffffffffffffffff47
:10109000ffffffbf2c0496000000000000000000ce
:1010a0000000fa7582f575837f7400121123e479cc
:1010b000347802b800028004f709d8fce4900302f7
:1010c00078e879058002f0a3d8fcd9fa7ae97b07a1
:1010d000901144786579028015e493a3ad82ae83c4
:1010e0008a828b83f0a3aa82ab838d828e83d8e918
:1010f000d9e77582d07583e574021211237582c019
:101100007583ed740212112375d00075813f75311e
:1011100000753202753303759f007593005392fe7c
:101120000210aec09ff59fe473d09f225392fed071
:1011300083d082c09fe493c0e0740193c0e0740246
:1011400093f59f220300000201020300000f00c379
:10115000a88ee8b19dcf7f5eb98b9f41efb055f46b
:1011600001fa00960064004b0032001e001400d605
:10117000be898e000106021213151429417671fff3
:10118000c1fbe84c90728be7b3518963ab23230218
:10119000841872aa612f3b51a8e53749fbc9ca0cd4
:1011a00018532cfd45e300400000fffffffffaff4e
:1011b000ffff0000800062000000ff7f00000500cc
:1011c000060007000000010001000001000102020a
:1011d0000300020000000000020201000240420f72
:1011e0000019000000093d0000e4fffffffb349bf5
:1011f0005f8000008000100000000000000200007e
:1012000000ff0000000000080501000000000001d0
:101210000805000000000000070300000080000136
:10122000000080000004000000000007090000002a
:101230000d00000104070000000000020100000290
:10124000020000070a301b361b3c1b421b481b4e8a
:101250001bb81ace1cb01c341d1c1d221d8000049e
:1012600005800004060600000080000402800004df
:1012700004800002000b00000080000600ff4617fb
:10128000ce137a1958142e1dd41cf61b3a1db21a0f
:10129000ff590601ffffff0000000080ffffffff76
:1012a00000000000c000000012112c36c102121113
:1012b0002c4ec10212112c79c10212112cc6c1028e
:1012c00012112cdec10212112c06c20212112c5670
:1012d000c20212112c86c20212112ce7c202121194
:1012e0002c03c30212112c1fc30212112c44c3027f
:1012f00012112c9dc30212112c2cc80212112ce0c9
:10130000c80212112c04ff0112112c1cff01121132
:101310002c8dff0112112cd0ff0112112c70d40260
:1013200012112c04d50212112c7ad50212112c9014
:10133000d50212112cbcd50212112cd1d5021211da
:101340002c2ad60212112c4bd60212112ca9d6022d
:1013500012112ceed60212112c5fd70212112c8a18
:10136000d70212112c0ed80212112c3dd8021211e4
:101370002c5cd80212112c70d80212112cb5d80294
:1013800012112c03d90212112cb6cf0212112cd239
:10139000cf0212112c08d00212112c16d0021211f9
:1013a0002c47d00212112c74d00212112c7dd002c5
:1013b00012112cc0d00212112c46d10212112cb3e2
:1013c000d10212112c04d20212112c33d2021211aa
:1013d0002c87d20212112c59d30212112c64d30281
:1013e00012112c97d30212112cc8d30212112c19ee
:1013f000d40212112c56d40212112c76ec021211c6
:101400002c96ec0212112cbfec0212112c25ea02d0
:1014100012112c73ea0212112c82ea0212112cdf33
:10142000ea0212112ca9ed0212112c86eb02121104
:101430002cb3eb0212112ce1f40112112c48f5012e
:1014400012112c8ef50112112cb7f50112112cc3bb
:10145000f50112112ce6f50112112c2af6011211d8
:101460002c71f60112112ccff60112112c22f80169
:1014700012112ce9f80112112c90f90112112cb65d
:10148000f90112112cfaf90112112c85fa0112112d
:101490002c9afa0112112cd8fa0112112cf8fa0127
:1014a00012112c5afb0112112c6dfb0112112c5838
:1014b000fc0112112c5cfd0112112ccefd01121148
:1014c0002ce4400012112c8a420012112c0e430011
:1014d00012112c62440012112cd1440012112c0b59
:1014e000450012112cd5450012112c564600121140
:1014f0002c3e470012112c56480012112c4849006e
:1015000012112c824a0012112cdb4a0012112c43ba
:101510004b0012112cc04b0012112c614c00121107
:101520002cd34c0012112c6c4d0012112cd24d00fa
:1015300012112c404e0012112c954e0012112c1d30
:101540004f0012112cd34f0012112c895000121190
:101550002c4b520012112c79540012112cbe540045
:1015600012112c3a550012112ca3550012112cf116
:10157000550012112c9d570012112c3d58001211cc
:101580002cc9580012112c0a590012112c8b5a0028
:1015900012112cec5a0012112c005c0012112cf6c6
:1015a0005c0012112c255e0012112c605f001211dc
:1015b0002c38610012112cf6630012112c94640077
:1015c00012112c40650012112c31660012112ca44e
:1015d000660012112c086b0012112c836d00121181
:1015e0002c516e0012112ca3700012112cb9710035
:1015f00012112ce2720012112cf9720012112c1e21
:10160000dc0212112c5ddc0212112c8adc02121198
:101610002cb7dc0212112ca4dd0212112c7bde028d
:1016200012112ce37e0012112c3c7f0012112c9d14
:101630007f0012112c00800112112c2a800112113e
:101640002c76800112112c94800112112cb1800192
:1016500012112cce800112112cf6810112112c0ec8
:10166000840112112c74840112112ce784011211cf
:101670002c24850112112c59850112112c9b8501f6
:1016800012112c09860112112cb7860112112cc5da
:10169000860112112cfc870112112c328a011211c1
:1016a0002cb88a0112112cec8a0112112c308c01f9
:1016b00012112c598d0112112c7a8d0112112cd27c
:1016c0008d0112112cf08d0112112c2c8e01121192
:1016d0002c5f8e0112112c6e920112112c96920128
:1016e00012112ce2920112112cb7980112112c0345
:1016f000990112112c44990112112cf09901121127
:101700002cb79a0112112c449d0112112c9e9e019e
:1017100012112c0e9f0112112c52a10112112ccc6e
:10172000a10112112c10a20112112c5ca2011211a4
:101730002cb4a20112112c55a30112112c9fa3014c
:1017400012112cfaa30112112c04a40112112c3b2a
:10175000a50112112c5ca50112112ce2a501121198
:101760002c3da60112112cfda60112112c9ea701e1
:1017700012112c3ba90112112c5ca90112112c96fb
:10178000ab0112112cc8ac0112112c6dad0112115c
:101790002ccead0112112ca7ae0112112cadaf0150
:1017a00012112ca5b00112112cb6b00112112cc0cf
:1017b000b00112112cbdb20112112c1ab301121179
:1017c0002c49b30112112cb0b30112112cdfb3015b
:1017d00012112c72b40112112c06b50112112c67d2
:1017e000b50112112cddb50112112cfbb50112113e
:1017f0002c30b60112112c67b60112112cc0b601a3
:1018000012112cdab60112112c07b70112112c1586
:10181000b70112112c54b70112112cc3b7011211c8
:101820002cb0e60212112c6ce70212112c8ee7028a
:1018300012112cd9e70212112c1ce80212112c8b68
:10184000ed0212112c45e20112112c71e20112116c
:101850002cb9e20112112c15e30112112c76e301cf
:1018600012112c3be40112112c56e50112112ce847
:10187000e60112112c91ea0112112c6fec011211e8
:101880002c71ef0112112cb5ef0112112ca1f001f6
:1018900012112ca6f10112112c20f30112112c951a
:1018a000f30112112cbff40112112c09d9021211eb
:1018b0002c35d90212112c4cd90212112c50d902fc
:1018c00012112cead90212112c85db0212112c0004
:1018d000800212112c66800212112c8380021211d8
:1018e0002cb0800212112cdc800212112c1081020b
:1018f00012112c5f810212112c8e810212112cf117
:10190000810212112c4e820212112c1c8302121120
:101910002c96830212112c37850212112cef8502ae
:1019200012112c78880212112cf88b0212112c390a
:101930008c0212112c928c0212112c428d02121167
:101940002c0d8f0212112c9d8f0212112cde8f0292
:1019500012112c34900212112c8c900212112cb204
:10196000900212112c05910212112c4691021211b3
:101970002cb7920212112cd8930212112ce9930267
:1019800012112c82950212112c98950212112cc062
:10199000950212112c5e960212112c7396021211ee
:1019a0002ca5960212112cab970212112c42980210
:1019b00012112c78980212112cc0980212112cb41a
:1019c000990212112c0f9a0212112cf69a0212117e
:1019d0002c699b0212112cad9b0212112c939c02bc
:1019e00012112cfb9e0212112c2b9f0212112cabf8
:1019f0009f0212112c6ee80212112c7be8021211c8
:101a00002c9ee80212112ce1e90212112ceee902df
:101a100012112c1cea0212112c047a0012112c2330
:101a20007a0012112cee7a0012112c947c00121103
:101a30002cf27c0012112c477e0012112cb07e007b
:101a400012112cf1ea0212112c1feb0212112c4977
:101a5000eb0212112cc1de0212112c4adf0212110c
:101a60002c7cdf0212112cecdf0212112c8ee00212
:101a700012112cbce00212112c27ed0212112c3392
:101a8000ed0212112cc2b80112112c18b901121159
:101a90002ce0b90112112cf3bb0112112c91bd01e4
:101aa00012112c57be0112112c67bf0112112c0705
:101ab000c00112112c84c00112112c3cc101121161
:101ac0002ca4c30112112c24c40112112c88c401ae
:101ad00012112c32c50112112c31c60112112c36f3
:101ae000c70112112ccdcb0112112c1ace011211eb
:101af0002cc5d00112112c92d30112112c90d601b9
:101b000012112c4fd80112112cd9da0112112c6f9d
:101b1000df0112112cb8e00112112c44e101121165
:101b20002ccee10112112c22e20112112cfae20258
:101b300012112c78e30212112c8ee30212112ca444
:101b4000e30212112cbae30212112cdbe302121190
:101b50002cf1e30212112c07e40212112c88b002be
:101b600012112c18b10212112c9bb10212112cc1ae
:101b7000b10212112c8db20212112c43b3021211b8
:101b80002c83b30212112c09b40212112c7bb40263
:101b900012112cddb40212112c5ab50212112c6d47
:101ba000b50212112c81b50212112cb6b502121118
:101bb0002ce8b50212112c1ab60212112c60b602d2
:101bc00012112ca0b60212112cf4b60212112c0321
:101bd000b70212112c0cb70212112c9fb70212116e
:101be0002cd6b80212112cfcc80212112c0bc902ff
:101bf00012112cdec90212112cf0c90212112c7e16
:101c0000cb0212112c59cc0212112cc2cc0212118f
:101c10002cdbcc0212112cf1cc0212112c2bcd0298
:101c200012112c6ecd0212112cb8cd0212112c0102
:101c3000ce0212112cccce0212112cdace021211cd
:101c40002ce2ce0212112c0acf0212112c23cf0249
:101c500012112c48cf0212112c68cf0212112c78cd
:101c6000cf0212112c88cf0212112c9acf0212111e
:101c70002ca8cf0212112cd8e40212112c27e50255
:101c800012112c14a00212112c38a00212112c4d8a
:101c9000a00212112ceba00212112c11a1021211a0
:101ca0002c44a10212112ccbad0212112cfdad025d
:101cb00012112c00b00212112c0de10212112c6f26
:101cc000e10212112c93e10212112ce2e102121135
:101cd0002c36e20212112cd7e20212112cf0e20291
:101ce00012112cf8b80212112c15b90212112c2560
:101cf000ba0212112c84ba0212112c2cbb0212113e
:101d00002cabbc0212112c57bd0212112ca5bd0226
:101d100012112c0abe0212112c70be0212112cc21a
:101d2000be0212112c4ebf0212112cc9bf02121199
:101d30002ca2c00212112cceed0212112cd2ed02f7
:101d400012112cd4ed0212112cdaed0212112ca377
:101d5000100012112c09ec0212112cd4ec021211f9
:101d60002c5ced02e066701008a3e066700a08a320
:101d7000e066700408a3e06622c3e7960809e796c8
:101d80000809e7960809e796a2d265d03322c3e096
:101d90009608a3e09608a3e09608a3e096a2d26571
:101da000d03322c021c3e096f52108a3e09642215a
:101db00008a3e096422108a3e0964221a2d265d072
:101dc00033e5217001d3d02122c3e7960809e796b5
:101dd0000809e7960809e79622c3e09608a3e0966b
:101de00008a3e09608a3e09622c021c3e096f5215f
:101df00008a3e096422108a3e096422108a3e096ba
:101e000045217001d3d02122080808eac0e0ebc0c8
:101e1000e086f0e7a4fa180986f0e7a42afa180980
:101e200086f0e7a42afa180986f0e7a42afa1986a8
:101e3000f0e7a4fbe5f02afa190886f0e7a42bfbeb
:101e4000e5f03afa190886f0e7a42bfbe5f03afa38
:101e500018180986f0e7a4c5f02bfbe43afa190834
:101e6000e7c5f0c6a426f6e5f03bfbe43afa18868f
:101e7000f0e7a4f6e5f00826f6e43b08f6e43a08b5
:101e8000f6d0e0fbd0e0fa22e4cfc0e0e4cec0e040
:101e9000e4cdc0e0e4ccc0e075f020e626f608e62c
:101ea00033f608e633f608e633f6181818ec33fc78
:101eb000ed33fdee33feef33ffc3ec9709ed9709e9
:101ec000ee9709ef97191919400fffec97fc09edf0
:101ed00097fd09ee97fe191906d5f0bfecf709ed4d
:101ee000f709eef709eff7191919d0e0fcd0e0fd7a
:101ef000d0e0fed0e0ff22121f5f181818121e88d3
:101f0000121f4e19191922121f4e19191908080803
:101f1000e618181820e7e0121e88121f5f1818181c
:101f200022090909e719191920e7dc080808e61849
:101f3000181820e703021e88121f5f181818121eb7
:101f400088121f5f181818121f4e19191922e4c39e
:101f500097f709e497f709e497f709e497f722e47c
:101f6000c396f608e496f608e496f608e496f62298
:101f70006017080808c6a2e713c618c613c618c615
:101f800013c618c613c6d5e0e9226016080808c6ad
:101f9000c313c618c613c618c613c618c613c6d5ab
:101fa000e0ea227009080808226016181818c6c34b
:101fb00033c608c633c608c633c608c633c6d5e01e
:101fc000ea22e627f60809e637f60809e637f608b2
:101fd00009e637f622e026f608a3e036f608a3e085
:101fe00036f608a3e036f622e026f008a3e036f045
:101ff00008a3e036f008a3e036f022c3e697f6081f
:1020000009e697f60809e697f60809e697f622c367
:10201000e0c696f608a3e0c696f608a3e0c696f6d4
:1020200008a3e0c696f622e056f608a3e056f608a6
:10203000a3e056f608a3e056f622e647f60809e6be
:1020400047f60809e647f60809e647f622e046f6ad
:1020500008a3e046f608a3e046f608a3e046f62209
:10206000e046f008a3e046f008a3e046f008a3e04d
:1020700046f022e066f608a3e066f608a3e066f6fe
:1020800008a3e066f622e0f608a3e0f608a3e0f66f
:1020900008a3e0f622e6f008a3e6f008a3e6f008bd
:1020a000a3e6f022e0faa3e0fba3e0fca3e0fd221c
:1020b000eaf0a3ebf0a3ecf0a3edf022e0fca3e048
:1020c000fda3e0fea3e0ff22ecf0a3edf0a3eef011
:1020d000a3eff022e0f8a3e0f9a3e0faa3e0fb22eb
:1020e000e8f0a3e9f0a3eaf0a3ebf022cac0e0e62f
:1020f000f0a308dafad0e0fa22cac0e0e0a3059221
:10210000f0a30592daf6d0e0ca225392fefae9fb78
:102110007921e7f0a309dafae8f0a3ebf9f0a3ecf0
:10212000f0a3edf0a3eef0a3eff0a3e520f0a3e51c
:10213000f0f0a3e592f0a3e584f0a3e585f0a3e534
:1021400081f0a3e531f0a3e532f0a3e533f0a3d0ad
:10215000e0fad0e0f0a3caf0eac0e0e0c0e07a0024
:102160007b00225392fecac0e0ebc0e07921e0f789
:10217000a309dafae0f8a3e0f9a3e0fca3e0fda3e9
:10218000e0fea3e0ffa3e0f520a3e0f5f0a3e0c0ac
:10219000e0a3e0f584a3e0f585a3d0e0f592d0e0dc
:1021a000fbd0e0fae0f581a3e0f531a3e0f532a33e
:1021b000e0f533a3d0e0d0e0e0c0e0a3e0c0e0ea87
:1021c0004b70027a0122c3e498f8e499f9122207cd
:1021d0008026c3e49afae49bfbe920e7e912220790
:1021e000e498f8e499f922c3e498f8e499f9122202
:1021f00007e498f8e499f9c3e49afae49bfb22eb2c
:1022000020e7cfe920e7e0b90010bb0008e88af03a
:1022100084f8aaf022e4fbc8fa22eb70227b10c8f3
:1022200033c8c933c9335007c39ac3dbf280069a57
:1022300050012adbeac833f4c8c933f4c9fa22755d
:10224000f008e4c833c8c933c933c99ac99b5004dc
:10225000c92ac93bd5f0ecfbc833f4c8e4c9fa225b
:10226000600d08c6a2e713c618c613c6d5e0f32250
:10227000600c08c6c313c618c613c6d5e0f4227096
:102280000422600d18c6c333c608c633c6d5e0f4b1
:102290001822253210af08f532400c15338008f5ae
:1022a0003240021533d2af2200c0d0253210af0821
:1022b000f532500c05338008f53250020533d2afa9
:1022c000d0d0222532f58210af08f532400c1533fc
:1022d0008008f53240021533d2af85338322c582a0
:1022e0002532c582c583353310af07f53385823279
:1022f0008007f533858232d2afc583222532f5823d
:10230000e43533f583222532f584e43533f585222f
:102310002532f8e43533f9222532fae43533fb224d
:102320002532fce43533fd22e4735392fe2532c599
:1023300082c0e0e53334ffc583c0e0e532c3958257
:1023400024f810af08858333858232800885833373
:10235000858232d2afcef0a3e520f0a37821e60843
:10236000f0a3defaeff0a3e58124faf8e608f0a383
:10237000e608f0a3e608f0a30808e608f0a3e608dc
:10238000f0a315811581d0e0fed0e0f8158115810c
:102390001581e8c0e0eec0e0225392fe2532c582ee
:1023a000c0e0e53334ffc583c0e0e532c395822445
:1023b000f910af08858333858232800885833385a1
:1023c0008232d2afcef0a3e520f0a37821e608f068
:1023d000a3defaeff0a3e58124fbf8e608f0a3e61c
:1023e00008f0a30808e608f0a3e608f0a315811595
:1023f00081d0e0fed0e0f815811581e8c0e0eec0a4
:10240000e0225392fe853383853282e0a3fee0a36f
:10241000f5207821e0a3f608dffae0a3ffe0a3c0ef
:10242000e0e0a3c0e0e0a3c0e0e0a3c0e0e0a3c020
:10243000e010af088582328583338008858232853b
:102440008333d2afd083d0825392fe0211295392ac
:10245000fe853383853282e0a3fee0a3f520782158
:10246000e0a3f608dffae0a3ffe0a3c0e0e0a3c02a
:10247000e0e0a3c0e0e0a3c0e010af0885823285b1
:1024800083338008858232858333d2afd083d08274
:102490005392fe22c0925392fec0d02532c582c014
:1024a000e0e53334ffc583c0e0e532c3958224f212
:1024b00010af088583338582328008858333858217
:1024c00032d2afc8f0a3e9f0a3eaf0a3ebf0a3790e
:1024d00021e709f0a3d8faecf0a3edf0a3eef0a306
:1024e000eff0a3d0e0f0a3d0e0f0a3d0e0f0a3e5bc
:1024f00020f0a3e5f0f0a3d0e0f0225392fe853364
:1025000083853282e0c0e0a3e0f9a3e0faa3e0fb18
:10251000a37821e0f608a3dffae0fca3e0fda3e046
:10252000fea3e0ffa3e0c0e0a3e0c0e0a3e0f5d09d
:10253000a3e0f520a3e0a3f5f0e0a3c0e010af080e
:102540008583338582328008858333858232d2af9a
:10255000d0e0d082d083f592d0e0f8d0e032e584ac
:10256000f0a3e585f022e0a3f584e0f5852274046c
:102570008006740280027401c0e0f4041222c3d009
:10258000e01220ec2274048006740280027401c000
:10259000e0f4041222c3d0e01220f922d083d082ca
:1025a000c5f0e493a3c5f0c395f0f5f0e493a3c39d
:1025b00095f04005e5f0048001e475f002a4258261
:1025c000f582e5f03583f583e493a3c0e0e493c09e
:1025d000e022d083d082e9c0e0e493a3c386f0c5b3
:1025e000f095f0f908e493a386f0c5f095f0700b30
:1025f000e493a3c3994005e9048002a3e475f002c3
:10260000a42582f582e5f03583f583d0e0f9e493e3
:10261000a3c0e0e493c0e022c0e0c0d075d008c001
:1026200092c082c083c0f0759800e5a8f8c2af538d
:1026300092fe9004dbe0d2e1f0753400e8a2e7e41a
:1026400033fee8a2e792af1212f0d0f0d083d0822e
:10265000d092d0d0d0e032c082c0835392fe90049a
:10266000aae4f0a3f0a3f0a3f0d083d0822274f701
:1026700012239979001219f29003f21238a8eac3d2
:1026800098f8eb99f9e82404fee439ff9003ff126f
:102690002f36c3ee9cef9d402c9003fd122f3690f9
:1026a0000401e02af8a3e03bf9e8c39cf8e99df9ae
:1026b0009003f2123323a3ecf0a3edf09003ffecb0
:1026c000f0a3ed80239003f2122b6e9003ff122ce7
:1026d0006c9003ff1238a89003f41233239003fb8d
:1026e000e070047402800114f07af07b031238b2b7
:1026f000800ff085328285338312256674021222a0
:10270000a87f0202244e74f7122399e9fe9003fc7d
:10271000e0f8ee600924fe601d14601a8032900318
:10272000f9e0a2e35009e860279003fc148020c27e
:10273000e2f0d2e380199003f9e0a2e2500c7408b1
:1027400068600d9003fce0048005c2e3f0d2e2f083
:102750009003fae070089003f874fff080499060ed
:102760000a12290849703d90618fe0c0e09003fc97
:10277000e0f87408c398f8d0e0b800028004c313ee
:10278000d8fcf52174ff6521700990600ae4f0a37c
:10279000048010e5212401f8e43400f990600ae88f
:1027a000f0a3e9f012266e02270174f7122399e9cb
:1027b000fe24fc600624fe602a800d9004c3e064c1
:1027c00001705d121710805890041de064017013b1
:1027d000900417e4f0ee700b7b09123030fa7900a8
:1027e000123bfd900417e0700890041574fff08010
:1027f0002f90618fe0ff79001219f28b22a92290ad
:102800000419e02af8a3e039f9740f5ffae82af80e
:10281000e439f990040f1233237a0d7b041238b295
:1028200002270174f712239974fe1222c312255e47
:102830009004671229082412fae439fb90605ce0e6
:1028400060088a828b83e0d2e1f0e82430fce4392e
:10285000fde82432f584e439f58590605ae070068d
:1028600090605ee060368a828b83e0a2e14019d2fc
:10287000e1f0e82422f582e439f583122b5a122282
:102880007f8c828d8312330be40592f0a3f07900e4
:102890008532828533835392fe0226f9e81232e9ab
:1028a00039f58312389f858482858583e02ef0a3d5
:1028b000e03ff08c828d830592e0fca3e0fdc30530
:1028c00092e09ca3e09d50c688828983a3a3a3a322
:1028d000a3a3a3a3a38582848583858a828b83e0b7
:1028e000a2e1500474088002743e0592f07b0288d5
:1028f0008289830592a3a3a3a3a3a3a3a3e0fa7948
:1029000000123bfd790180881238ace82274f51280
:10291000239974fe1222c312255e122f1bf584e444
:102920003ff5850592e0fc7003022b55ee242ef551
:1029300082e43ff58305921238a88e828f83a3a389
:10294000a3a3a3a3a3a38582238583248e828f833d
:10295000a3a3a3a3a3a3a3a3a3aa82ab83ee24341c
:10296000123619687003a3e069701a74026c700360
:10297000022aee74016c607b74096c60258a828b7c
:102980008374228059ec14606a147003022aee24c6
:10299000fa601c14600c146046147003022b3102a0
:1029a0002b55906008e0a2e65003022b558030eed4
:1029b0002439f582e43ff583801388828983a3a3b9
:1029c000a3e064037003022b5588828983122908cf
:1029d0004970e78a828b83e0641370037416f07b7e
:1029e00002852382852483e0fa7900123bfd790178
:1029f000022b57ee245512398dee244cfce43ffd9a
:102a0000ea24fff521eb34fff522e521687003e5a8
:102a100022697074ee244d122b628e828f83122bea
:102a20006c8c828d83e025e0f8e433f9e82403f828
:102a30005001098e828f83a3a3a3a3123324900491
:102a400098e0a2e050098e828f83a3a312331f90d7
:102a500004b2e4f0a3f0a3f0a37402f0900498e0b1
:102a6000a2e04003022b55906062e4f08c828d83db
:102a7000e0f875f0e2a4c8aaf075f004a42af912ef
:102a80002f0f123323022b55ea687002eb696003a3
:102a9000022b557521097522007821122572ee242a
:102aa0001bfae43ffb121d5874021222a8900498ee
:102ab000e0a2e05007eefaeffb123267e40592f075
:102ac000ee2422f582e43ff5830592122b5a12225e
:102ad0007fee2430f582e43ff58312330bee24328f
:102ae000f582e43ff583e4f0a3f07b08805ae82404
:102af0000108500109ee245c123619687003a3e046
:102b00006970527521057522007821122572ee2414
:102b100057fce43ffdee2424fae43ffb121d5874f9
:102b2000021222a8eefaeffb12170ae40592f080d7
:102b300024eefaeffb1212f6e40592f005929004ef
:102b400098e0a2e0500f7b07852382852483e0fa7a
:102b50007900123bfd7900023042122c8274037816
:102b60002122f582e43ff58312370922a3a3e0284e
:102b7000f0a3e039f02274f812239974fe1222c3f4
:102b800012255e900467e0f584a3e0f58512290d17
:102b9000e9704e122823e97048e584242ef582e47a
:102ba0003585f583e02401f0a3e03400f09060085f
:102bb000e0c0e0e5842436f582e43585f583d0e095
:102bc000f0e5841232e93585122b660592a3a3e065
:102bd00028f0a3e039f00592900467123993123877
:102be000b202397a74f712239974fe1222c31225a5
:102bf0005e8a828b83a3a3ac82ad839004b7ea2460
:102c00001ef584e43bf5850592e0f8a3e0f9e82899
:102c1000f8e933f990049ae0f521a3e01232ef05c8
:102c200092e028f8a3e039f98c828d831233239047
:102c300004b2122c758c828d83122c6c9004b41209
:102c40002c757a207b4e122207882189228c828d56
:102c500083e09521f0a3e09522f09004b9122c7541
:102c6000e828f8e933f9122f070226f2c3e098f0ba
:102c7000a3e099f0221238ac90049a122c821232fe
:102c8000f522e0f521a3e0f5222274f312239974d2
:102c9000fe1222c312255e122f1bf523e43ff524fa
:102ca000852382f583e0640c7011906008e0540382
:102cb0006009852382852483740df0ee2412f58447
:102cc000e43ff5850592e0a2e35008c2e3f00592e7
:102cd000022eeb8e828f830592a3a38582218583aa
:102ce00022906062e0601079101219f285218285cd
:102cf0002283eaf0a3ebf012290de96003022ef41f
:102d0000122823e96003022ef4906008e0c0e0ee90
:102d10002436f582e43ff583d0e0f09061d5e0f809
:102d20009061d7e06805926005e0d2e28003e0c2de
:102d3000e2f005929004b4123993906062e060165c
:102d4000ea24c0faeb3437fb123bd29004b9122bc1
:102d500068122f078012123bbc9004b9122b6890a6
:102d60006064e028f0a3e039122f3c24fff0a3e0d8
:102d700034fff0ee242b1236199004b6f0ee242026
:102d800012398dee242ef525e43ff526ee245cf570
:102d900084e43ff585ea4b7003022e2d90049ce0fd
:102da000f8852382852483e0fc701e122f27707d16
:102db000ee2439122f2a7075e8a2e04070ea24014f
:102dc000f8e43bf990049a804a740d6c705f122ffe
:102dd00027705aee2439122f2a7052e8a2e0404d93
:102de0008584828585838525848526850592e0f8fe
:102df000a3e0f90592e0c398f8a3e099f9ea240169
:102e00000a50010bc398eb9990049a5006eaf0a37c
:102e1000eb8004e8f0a3e9122f3cf8a3e0f990045a
:102e2000b7123323eefaeffb122be4805690049a8c
:102e30007401f0a3e41236fd852182852283122bd2
:102e40006e9004b21238a8852182852283122c6ce0
:102e5000852382852483e0640c702885258285265d
:102e600083e02402f8a3e03400f90592e0faa3e03d
:102e7000fbc3e89ae99b400b852382852483740277
:102e80000592f08e828f835392fea3a3a3a3a3a3e4
:102e90008582848583859060641238a87a717b026c
:102ea0001222078922e82405f8e43522f985848274
:102eb0008585831233238e828f83a3a3a3a3123924
:102ec00093858482858583e0f8c3ea98eb99a2d242
:102ed00065d0335007ea0592f0a3ebf05392fe124f
:102ee00038a5852582852683122b6e9004671239ba
:102ef000931238b2853282853383122566740212aa
:102f000022a87f0602244e122f0fe8f0a3e922e840
:102f100024eaf8e93402f990606422900467e0fe44
:102f2000a3e0ffee240a22ee2432f582e43ff5838b
:102f3000122f36ec4d22e0fca3e0fd22f085218229
:102f4000852283e02274f512239974fe1222c312a3
:102f5000255e8031c2e512302bc0e09004c1e01242
:102f60003010d0e0f09004c1e004f0a3e004f0a33e
:102f7000e004f09004c5e0700c7401f07b007a006e
:102f80007900123bfd90605ae0f521906002e0a2ca
:102f9000e050047800800590605de0f89004c2e0a5
:102fa000fae52128f8e43400f9e86a7001e960588c
:102fb0009004c1e0f52374012523547ff521e52316
:102fc000123010e0f808089004c1e028f074802561
:102fd00021f582e43460f5830592900467e0f8a35c
:102fe000e0c82408f584e438f585e0a2e70592e01e
:102ff0004003022f54d2e5f012302224db12302b92
:10300000fa1230224a022f64853282853383803b54
:1030100012301422547ff8748028f582e43460f56d
:1030200083229004c1e0123014e022f012303022ea
:10303000900467e0f8a3e0c82408f582e438f5833b
:10304000e0228532828533835392fe122566740214
:103050001222a87f0402244e74f512239974fe12e2
:1030600022c312255e89210592900467e0f582a3b0
:10307000e0f583858284858385a3a3a3a3a3a3a36b
:10308000a3e0a2e740469004c4e0f8906054e0c397
:1030900098f5229004c4e02522f0ae82af8380111f
:1030a000ee2439fae43ffb121620ea4b60031218b3
:1030b0003685222374ff2523f5220470e3e521a23f
:1030c000e640097900eefaeffb12179a023042c08f
:1030d000e074f11224948535c675a70075a10079b6
:1030e00050121a107f010224fbc0d075d01875bf92
:1030f00000d0d032c0e0c0d075d018c092c082c01d
:1031000083c0f08535c6e591fe759b00f4f59153bb
:1031100092fe906002e0a2e05004780080027808fd
:103120007900e844015e6003122f45eea2e55004e9
:10313000f9123058eea2e75029e5a8f8c2af900482
:10314000dbe0d2e0f0753400e8a2e7e433f9e8a26e
:10315000e792afe594a2e24009759403e594a2e2f8
:1031600050faeea2e64003023234906061e0f9903a
:1031700004c2e4f09004c4f09004671239938a8288
:103180008b83a3a3a3a3a3a3a3a3e024106012246f
:10319000fc600924fc700f12270680661227aa80a3
:1031a00061121650805c900497e0600514601480f2
:1031b00023906060e06480601be0c0e0123251d078
:1031c000e08010906058e0f890605ce028f81232df
:1031d00051e028f0906060e064806016e0c0e0900c
:1031e0000467e0f8a3e0c82413f582e438f583d03f
:1031f000e0f0900498e0a2e05005122c8a800312bf
:103200002b76906059e0f89004aae028f09060587e
:10321000e0f89004abe028f090605a1232489060d9
:103220005e12324890605ce0f89004ade028f01245
:10323000163e8004a2e75003123999d0f0d083d013
:1032400082d092d0d0d0e032e0f89004ace028f008
:1032500022ea242cf582e43bf583e0fa74722af525
:1032600082e43404f5832274f7122399ea242af5c0
:1032700082e43bf583e025e0f8e433f9740428f5b3
:1032800082740839f583e02432f8a3e03400f9eac7
:103290001232e93bf583e0f521a3e01232efe82496
:1032a0001ff8e93403f97a207b0312220788218969
:1032b00022ac21ad227a717b021222078a218b2255
:1032c0007405782112227f9004b412330becf8edd0
:1032d000f97a717b021222079004b2123323900410
:1032e000b9ecf0a3edf0022701241ef582e422f5eb
:1032f000221232f522e88521f0a4c8aaf08522f036
:10330000a42afa8521f0e9a42af922e521f0a3e50f
:1033100022f022e824fcf8e934fff98e828f83a39f
:10332000a3a3a3e8f0a3e9f02274f712239974fe93
:103330001222c312255e900467122f361238a5ecb4
:103340002429f582e43df583ec242bfae43dfb8a45
:10335000848b85740168497012e0f80592e028fac0
:10336000c39425402974db2afa8023e0f521e885ff
:1033700021f0a4f8aaf08521f0e9a42af90592e049
:10338000fae82af8e439f97a257b00122207eaf0f4
:10339000ea131313541ff8ec28f8e43df9e8242449
:1033a000f582e439f5830592e0c0e074075af8d05d
:1033b000e0b800028004c313d8fca2e040288005d6
:1033c000e8cac39afaec24e5f582e43df583e0f817
:1033d000eac39850ebec2af8e43df9e824c0f58202
:1033e000e439f583e0faec242cf582e43df583ea38
:1033f0000226f274f612239974fe1222c312255e7d
:1034000090041ee09060026004740e8002740ff05d
:10341000900418e0906001f09008141220d490619c
:10342000951220e01217a690041de0f521740165a5
:10343000219004167040e05402f97a1f7b041216a2
:103440006e900416e0a2e050097aa47b0475214036
:1034500080077a9e7b04752100a2e150047e808063
:10346000027e0075230678231225767c1f7d04e5f5
:10347000214e44018068e0a2e050087aa47b0478e1
:103480004080067a9e7b04780005929004441225c1
:103490008d7c257d0474182521f582e43408f5839c
:1034a0000592e048f912167474011222a890041dc6
:1034b000e0f86005740268702e900416e0a2e050f7
:1034c000087aa47b04784080067a9e7b0478000505
:1034d0009290046412258d7c457d04e84404f91221
:1034e000167474011222a8900416e0a2e0e433f9e5
:1034f00012166875910090041ee090618260047459
:10350000c8800274c0f01216388532828533831267
:10351000256674021222a87f0302244ec082c08353
:103520005392fe906002740ff09003fbe004f0648d
:10353000037002e4f0e02425906000f0900814127b
:1035400020d49061951220e09003f9e05420f91204
:1035500016681217a69003f9e0a2e15004d2f08099
:1035600002c2f0a2f0e43390600cf09003f9e0a204
:10357000e1503575d90da2e55004784080027800fd
:10358000e84403f5d9e0a2e550067aa47b04800460
:103590007a9e7b047906121644740675d90014705d
:1035a000fae5e170fc75e19575910090618274c156
:1035b000f012163802266974f812239974fe12224a
:1035c000c312255e1236661217a612365c1220d47c
:1035d0009061951220e012369512332912368df53e
:1035e00084e43ff5858584828585831236751217bc
:1035f0009aee2412123619a2e250180592e0f8a3ae
:10360000e0f58388820592a3a3e02402f89061d5b7
:10361000e028f012163202397af582e43ff583e0b1
:103620002274f81223991236661217a612365c120b
:1036300020d49061951220e012369512332912366b
:103640008df582e43ff58312367512179aee241e2b
:10365000122b62123313121632023988ee2414f53b
:1036600082e43ff58322900467e0fea3e0ff9060d0
:1036700002740ff0221238acee2437f582e43ff5e5
:1036800083e8f0a3e9f07900eefaeffb221236e4ca
:10369000f0ee243922ee2436123619906008f0ee4e
:1036a0002418123619906005f0ee2419123619907c
:1036b0006006f0ee241a123619906007f02274f8b2
:1036c0001223991236661217a612365c1220d49075
:1036d00061951220e01236951236e41236fd12334f
:1036e00013023988ee242cf582e43ff583e09060e4
:1036f00000f07591009004cfe090618222f0ee120c
:1037000032e93ff58312370922e0f8a3e0f9e8280f
:10371000f8e933f92274f112239974fe1222c312cc
:10372000255e7521007522007c6e7d04801b8882d9
:10373000898312389f8c828d83eef0a3eff088820c
:10374000898312330b882189228c828d8312389fc2
:10375000ee4f70398c828d83eaf0a3ebf08a828b76
:1037600083e4f0a3f0aa21ab228532828533831251
:10377000256674021222a87f0802244ee52325271d
:10378000f8e5243528f98a828b83122b6ceef8ef4a
:10379000f988828983a3a38a848b850592a3a3e0f9
:1037a000f523a3e0f5240592e0c39523f523a3e0d8
:1037b0009524f5248a828b83a3a3a3a3a3a3e0f576
:1037c00025a3e0f526c3e5239525e5249526a2d279
:1037d00065d033403e8a828b831233238a828b8367
:1037e000a3a3a3a38582848583851238a8c3e52378
:1037f00098e52499a2d265d033500d8584828585c1
:1038000083e523f0a3e524f08c828d83eaf0a3eb1b
:1038100002376488828983a3a3a3a3a3a3e0f52727
:10382000a3e0f528c3e49527f525e49528f526c3fc
:10383000e5259523e5269524a2d265d03350288a24
:10384000828b83a3a3a3a3a3a3a3a3e0a2e7500314
:1038500002377c88828983a3a3a3a3a3a3a3a3e0a5
:10386000a2e7500302372e88828983a3a3a3a385ee
:103870008284858385c3e49523fce49524fd123876
:103880009fc3ec9eed9fa2d265d033500b858482fe
:10389000858583ecf0a3edf0e8fce9fd023749e013
:1038a000fea3e0ff2290049a1238ac22e0f8a3e0d5
:1038b000f92274f712239974fe1222c312255eeacc
:1038c0004b6031a2afe433fec2af1237158a828b50
:1038d000838016aa82ab838582848583850592e0e6
:1038e000f582a3e0f583123715e582458370e4ee97
:1038f000a2e092af0226f374f812239974fe12220a
:10390000c312255eeaf8ebf9e849606ca2afe43334
:10391000f521c2af90046e123993ea4b70549004b3
:103920006712389feefaeffb8a828b83a3a3888409
:1039300089850592a3a3e0fca3e0fd0592e09cfc31
:10394000a3e09dfdc3ec9405ed123b284024eefc62
:10395000effdec2412f582e43df583e0d2e4f0883b
:10396000828983eaf0a3ebf090046e12332379018d
:103970008008e521a2e092af790085328285338309
:1039800012256674021222a87f0102244ef582e4f9
:103990003ff583e0faa3e0fb2274f512239974fe4d
:1039a0001222c312255e79001219f28a238b247920
:1039b00077121a109061b1e4f0e070f87403f0e04f
:1039c000640370f890046e1238a8900467123323d1
:1039d000e8497012123b30e594a2e24003023b201a
:1039e000759400023b208882898312399390046e7b
:1039f000eaf0a3ebf088828983a3a3122c82888249
:103a00008983a3a3a3a3e02521f8a3e03522f9e845
:103a100024fdfee934ffff9060607480f0e521c36f
:103a20009523e5229524fb900467e0f584a3e0f557
:103a300085e5232401f8e43524f98584828585838e
:103a4000a3a3a3a3a3a3a3a3e02410603224fc6038
:103a50000624fc6007804b1233f3806f123b265024
:103a60001988218922c3e89ee99f4008e82401fec5
:103a7000e43522ff9003f212332312351c804c12de
:103a80003b26501988218922c3e89ee99f4008e817
:103a90002401fee43522ff9003f21233231217ac07
:103aa0008029900498e0a2e050051235b7801ca947
:103ab00085e5842412f582e439f583e0a2e4500818
:103ac000c2e4f01236be8003123621aa21ab22795d
:103ad00030121a04eefaeffb7940121a04795412ec
:103ae0001a10e521c39523f8e5229524f9c3e8943b
:103af00001e9123b28500c1217bee5e170fc75e19c
:103b000021801d900367e0a2e04012aa21ab22129f
:103b100019fe9004ae1220b0123b3080031217be83
:103b20001218c6023008c3eb9400a2d265d033222b
:103b3000e5a8f8c2af9004dbe0c2e0f0753400e81d
:103b4000a2e7a2e792af2200853487c2af22c0e08d
:103b5000c0d075d018c092c082c083c0f074fc126f
:103b600022925392fe9004dce0601c1216629003d5
:103b700067e054117008e5c654384487f5c69004d0
:103b8000dce4f0c2c78020c2c7aa32ab331217b838
:103b9000e9640170129004dc7401f085328285338f
:103ba000831220a41218ba75340074041222a8d00b
:103bb000f0d083d082d092d0d0d0e03275c30074e0
:103bc00020c39afa744e9bfbeaf5a2ebf5a353923d
:103bd000fe22c02175c301e5a2f521e5a375c3004e
:103be000f9e5212420f8e9344ef9e8c39af8e99b75
:103bf000f9e8f5a2e9f5a3d0215392fe2274f5125b
:103c00002399e9feeaff8b21753400a2afe433f576
:103c100022c2af90057de0f52474012524540ff5f0
:103c20002390057ce0652370057900121a6ae5246b
:103c300075f003a4f8a9f0740a28f8740539f9e8b6
:103c40002442f582e439f583eef0e82443f582e47a
:103c500039f583eff0e82444f582e439f583e52172
:103c6000f0e52390057df0e522a2e092af7f04020b
:103c7000244ec082c08374fc122292e5a8f8c2af21
:103c8000e5958532828533835392fef0e596c0e058
:103c900074011222fcd0e0f0e597c0e07402122219
:103ca000fcd0e0f0e8a2e7a2e792af74031222fc96
:103cb000e4f08532828533831220a474041222a892
:103cc000d083d08222c0e0c0d075d018c092c0820c
:103cd000c083c0f0121be4123c729006131220b095
:103ce000e58955ab900617f0e58090061af090062e
:103cf00017e0f4f5899062d0e0f8a2e15027900631
:103d000017e0a2e5501f53abdf9062d0e0a2e0e4e1
:103d10003390061df0900617e0c2e5f07b307a0084
:103d20007906123bfd900617e0600e7b007a007961
:103d300006123bfd7900121bf0c2c5d0f0d083d033
:103d400082d092d0d0d0e032c0e0c0d075d008c0d0
:103d500092c082c083c0f0121be4123c7290061322
:103d60001220b0e58a558df8900618f0e59090067f
:103d70001bf0e8f4f58a7b017a007906123bfd79a5
:103d800001121bf0c2eb80b3c0e074f012249490d7
:103d900061a9e06017c2afe589f8e5abf975ab0042
:103da000e4f090624bf0888989abd2af900622e0b4
:103db000640f7012e5c7f8900368e0f5c790ff1c28
:103dc000e0f4f5ae88c7e5bbf9e5bafaf521e9f507
:103dd00022900622e064106003023e7b7c007404a3
:103de0007821122270e5c7fd900368e0f5c790ffc7
:103df000c5e0f8a3e0f98dc774ff68700374ff692c
:103e0000700478217905e521c398f521e52299f51b
:103e1000227403782112227fa821a9227a12fb1290
:103e200021ff8922e82401f521500205227401783e
:103e300021122260a821e8c39405a2d265d0335094
:103e4000031c800ce8c39428a2d265d03340010c37
:103e5000ecf91216bc900622e4f0900922e0f4601e
:103e60003f900610e0fb90060fe0fa900922e0f97f
:103e7000121bfc90092274fff08025e025e0f8e495
:103e800033f9742328f582740639f583eaf0a3e543
:103e900022f0900622e02410fb7a007906123bfd06
:103ea000e5a8f8c2af9004dbe0c2e2f0753400e8a8
:103eb000a2e7a2e792af7f020224fbc0e0c0d07568
:103ec000d018c092c0f0e5d1f875d100c2c0a2e30d
:103ed00050097b037a007904123bfdd0f0023d418a
:103ee000c0e0c0d075d010c092c021c022c082c036
:103ef00083c0f05392fe90071b123ffb602a90068e
:103f0000d6e0700c7401f07b007a007904123bfd5e
:103f1000ee90071bf0e5c1c0e0741d2521f582e499
:103f20003407f583d0e0800be5c4a2e65006900686
:103f3000d57401f0023feac0e0c0d075d010c09245
:103f4000c021c022c082c083c0f0c2e95392fe905b
:103f500006d8e0fa9006d7e09a543ff8602974d961
:103f60002af582e43406f583e0f974012a543f907f
:103f700006d8f089c1900719e06870197b027a00b1
:103f80007904123bfd800ee5a8f8c2af9004dbe097
:103f9000c2e31240698053c0e0c0d075d010c09217
:103fa000c021c022c082c083c0f05392fe9007a5fa
:103fb000123ffb6029900760e0700b7401f07b00fa
:103fc000fa7904123bfdee9007a5f0e5f9c0e07424
:103fd000a72521f582e43407f583d0e0800be5fbcb
:103fe000a2e6500690075f7401f0d0f0d083d08233
:103ff000d022d021d092d0d0d0e032e0f52174018f
:104000002521543ffea3e06e22c0e0c0d075d01041
:10401000c092c021c022c082c083c0f0c2ea5392c5
:10402000fe900762e0fa900761e09a543ff8602939
:1040300074632af582e43407f583e0f974012a54a5
:104040003f900762f089f99007a3e06870197b023e
:104050007a017904123bfd800ee5a8f8c2af900406
:10406000dbe0c2e41240698081f0753400e8a2e729
:10407000e433f9e8a2e792af220306030202030346
:104080000206020303010502020100010101010011
:1040900000030200000500020707000203010101fe
:1040a0000806060503040401030602020202010fca
:1040b00000080305050207040101090101020101cd
:1040c00002010000000302020105050201010305cf
:1040d00000010003010000000201040402030204c5
:1040e0000104010074f012232a74f0122292e5c731
:1040f000f528900368e0f5c7752110752200782136
:104100001225727cdd7d037402122318121d58746f
:10411000021222a878211225727c007d007add7bb4
:1041200003121d5e74021222a8752100805a852197
:1041300082a882e875f06fa4faabf0900365124292
:104140007d246ef582e43bf583e0a2e050387f00e9
:104150008f82ac82e875f037a4faabf09003d312eb
:10416000427d2cfae43bfbea241af582e43bf5831a
:10417000e0fa74dd2cf582e43403f583e04af00fb5
:10418000efc3941040ca0521900364e0f8e521c311
:1041900098409b752100852182a88274dd126a48af
:1041a0003403f583e0fa853282853383e582126a2f
:1041b000483583f583e06af00521e521c39410407a
:1041c000d5752100852182ae827f0012426ca3a3a7
:1041d000a3a3a3a3a3a3e0f812426ce048f52260d6
:1041e000778f27e522a2e0505c7523018f24e52715
:1041f000782312227fa82374dd2ef582e43403f5a0
:1042000083e058600479018002790074e52ef5821c
:10421000e43403f583e0586004e9d2e1f98e238f9a
:10422000247403782312227f852725e5232525fa88
:10423000e43524fb74a02af58274f73bf583e0fa99
:104240007b00121bde0527e522c313f522e527c3f9
:1042500094085004e522708b0521e521c394085091
:10426000030241c48528c77410024736853282850f
:104270003383e5822ef582e43583f5832212428171
:1042800022e02afaa3e03bfbea2274f612232ae991
:1042900075f037a4faabf012130e9003d3126a75bf
:1042a000e5c7ff900368e0f5c790f79e125f4ae408
:1042b000c39af521741f9bf52278211225727c0088
:1042c0007d00121d5e74021222a88fc779087cd56a
:1042d0007d037a007b00121896e96408601b752143
:1042e0000875220078211225727c007d007ad57b2a
:1042f00003121d5e74021222a8800e85328285335d
:104300008312256674021222a87f0202240274f02e
:1043100012232a74fe1222c312255e8a278b2812ca
:1043200066290592a3858221858322125f4aea4b82
:1043300060158e828f83a3a3a3858223858324c3e4
:10434000e09aa3e09b500879011214d002443d0585
:10435000929007f01225857b070592126621121aaa
:104360002274041222a88e828f83a3a3a3a3a38501
:1043700082258583268e828f83e014604a146064d0
:1043800014602c14600d14700302442324fe607d1d
:1043900002443d8523848524850592122589852143
:1043a00082852283059212445a121362024436789f
:1043b000251225728523848524850592122589126c
:1043c000444712135680167825122572852384855a
:1043d0002485059212258912444712132c74041265
:1043e00022a880607825122572ee2417f584e43f18
:1043f000f5850592122589852384852485122589d2
:1044000012444712131a74061222a88037ee24179a
:10441000f582e43ff583e0f523a3e0f524e52345a9
:1044200024700812445412135c80197823122572e8
:1044300012445412133274021222a88007aa27ab26
:1044400028121836026affee2415f582e43ff58340
:104450000592e0f9852182852283125f40aa27ab6d
:10446000282274f612232a74fe1222c312255eea51
:10447000feebff892112661f121a16124ad5242a52
:104480001255e9e060220592e024fd600c24fc70e6
:1044900014740765217011800c740a65216006741c
:1044a0000165217003752100e4439201f00592f04b
:1044b000900363e0f522ac21eefaeffbe0f9121b6a
:1044c000a8900363e065226005a9221213f202425c
:1044d000fb74f612232ae9ff8c218d22900363e0fe
:1044e000fe7821122572740c1222fce0fdeffc9084
:1044f0000363e0f9121b5a74021222a8900363e0ce
:104500006e6005eef91213f202430974f212232ac7
:1045100074fe1222c312255e8a258b261245ac1228
:104520001a16900363e0ff858482858583a38582c4
:10453000238583247821122572eefd7c0485238255
:1045400085248312471c121b5a74021222a890035e
:1045500063e06f6005eff91213f2e5842417f8e4c5
:104560003585f988828983e02ef0a3e03400f07469
:10457000166e701788828983c3e09416a3e09400b6
:104580004009aa25ab261214ca8019790085238216
:10459000852483125f4a1214d0e40592f0aa25ab59
:1045a00026121836853282853383801c8c218d2219
:1045b000e9fe125bec7b07900363e0fa7901228548
:1045c00032828533835392fe12256674021222a82a
:1045d0007f0602240274f412232a74fe1222c312ec
:1045e000255e8a238b241245ac121a160592e0f838
:1045f000740768700feef9ac21ad22aa23ab241228
:1046000014dc803f740a68701012464ceefcaa213c
:10461000ab22e0f9121b60801712464c782112255c
:1046200072eefd7c00124842121b5a74021222a83c
:10463000900363e06f6005eff91213f2aa23ab2435
:104640001218368532828533830263d5e4f00592f1
:10465000900363e0ff2274f012232a74fe1222c337
:1046600012255e74fe1222928a278b288a828b83ff
:10467000a3a3a3a3a3a3a3a3a38582258583261213
:10468000661f121a16852782852883a3a3e024fac1
:10469000f523124a528525848526850592a3853205
:1046a000828533830592124a2c7e00804e900363ec
:1046b000e0ffe5842402f521e43585f52278211216
:1046c000257274fe29fd7c038584828585831247cb
:1046d0001c121b5a74021222a8900363e06f60053b
:1046e000eff91213f2852582852683e0f5212efe4f
:1046f000e5842521f584e43585f5858525828526a3
:1047000083e0f9eec3952340a48921e523c39521d5
:10471000124a1d124a611214ca026afa1279fe90f4
:104720000363e0f9221222a88532828533835392f3
:10473000fe12256674021222a87f0802240274f079
:1047400012232a74fe1222c312255e74fe122292d4
:104750008a238b24ea2409f8e43524126613121afa
:1047600016852382852483a3a3e024faf522125b15
:10477000e8858427858528e527242af582e43528dd
:10478000f5837401f0126aa7640170047e0280024e
:104790007e107521008010e06f6005eff91213f2b2
:1047a00074022e2521f521e521c395225053539201
:1047b000fe900363e0ffa821853282853383126572
:1047c000393400f585eef5257825122576e5842423
:1047d00003fce43585fd124842121b72740112225b
:1047e000a8e990036370b0e06f6005eff91213f26f
:1047f000852782852883e4f0aa23ab24121836800b
:104800003e852221e52124fef8e434fff98e21e8db
:10481000c39521f8e99400f9853282853383539258
:10482000fe1264842401f8a3e03400f98527828510
:1048300028830592a3126118aa23ab241214ca027a
:104840006afa12484d0592900363e0f9220592a39b
:10485000e0faa3e0fb2274f012232a74fe1222c3b2
:1048600012255e74fe1222928a278b28ea2409f808
:10487000e43528126613121a16852782852883a329
:10488000a3e024fbf52112558f05929003d3125a11
:1048900067858225858326e525242af582e4352649
:1048a000f58374010592f07f00800de06e6005eee7
:1048b000f91213f274042fffefc39521505beff848
:1048c00085328485338512610185828485838505df
:1048d00092900363e0fe7522027822122576e52588
:1048e0002417f523e43526f5247823122572124a7d
:1048f0003b121b6c74031222a8e990036370ace0b6
:104900006e6005eef91213f2852582852683e4f0a8
:10491000aa27ab28121836802ca82185328285332d
:104920008312647e3400f9e824fef582e934fff551
:1049300083124a78852582852683a3126118aa27c7
:10494000ab281214ca026afa74f012232a74fe12f7
:1049500022c312255e74fe1222928a278b288a8235
:104960008b83a3a3a3a3a3a3a3a3a385822585834a
:10497000268a828b83a3a3e024faf52112661f12f4
:104980001a16124a52853282853383124a2c7f00ce
:104990008012e06e6005eef91213f28525828526fd
:1049a00083e02fff852582852683e0f8efc39521dc
:1049b0005056e5252ffae43526fb8a828b83a385a2
:1049c0008284858385900363e0fe74fc28f5227859
:1049d00022122576ea2405f523e43bf524782312f8
:1049e0002572124a3b121b6c74031222a8e9900331
:1049f00063709fe06e6005eef91213f2127095aad3
:104a000027ab2812183680128823e521c39523127c
:104a10004a1da3a3124a611214ca026afaf895e069
:104a2000f9e52528f582e52639f583221279572400
:104a30002af582e438f5837401f022858482858525
:104a400083a3a3125a73faa3e0fb0592900363e0d9
:104a5000f922125e13853282853383e8f0a3e9f0f0
:104a600022a3124a7885328285338312708be8f054
:104a7000a3e9f0aa27ab2822e02401f8a3e0340040
:104a8000f92274f612232a74fe1222c312255e1232
:104a900013f2e970047a86801f124ad52416f58431
:104aa000500205850592e0a2e040047a8180091257
:104ab0001830ea4b70067a827b01800d0592e0c2c5
:104ac000e0f012136e7a007b0085328285338353c7
:104ad00092fe024301125bece5842274f212232a57
:104ae00074fe1222c312255eeafeebff8c258d2692
:104af0001213f2e970047a868012124e3960047a39
:104b0000818009121830ea4b70067a827b0180306e
:104b100074101222fce0f8c394145004882280031d
:104b20007522148525238526247823122572a9222f
:104b3000eefceffd12135074021222a87a007b00e3
:104b40000245bf74f012232a74fe1222c312255e9e
:104b50008a278b28ecff1213f2e970047a868025ed
:104b6000124e3960047a81801cefa2e04005c394a4
:104b70000450047a80800e1218308a258b26ea456c
:104b80002670067a827b018034efc394165004efbe
:104b9000fe80027e16740a124cc71225857b07051b
:104ba00092126621121a2274041222a8eef9ac277e
:104bb000ad28aa25ab261213447a007b00024728b1
:104bc00074f012232a74fe1222c312255e8a258bea
:104bd00026ecfeedff74141222fce0f521c39413c1
:104be00050191213f2e970047a868021124e39604e
:104bf000047a818018e525452670047a80800e129b
:104c000018308a278b28ea452870067a827b018033
:104c10004d74080592f0a3e525f0a3e526f0900772
:104c2000f01225857b070592126621121a22740460
:104c30001222a8741212230605921225898e238f40
:104c40002405927823122572a921ac25ad26aa2726
:104c5000ab2812133874041222a87a007b00024792
:104c60002874f412232a74fe1222c312255e8a22ab
:104c70001213f2e970047a86801a124e3960047aaf
:104c80008180111218308a238b24ae23af24ee4f7b
:104c900070067a827b01802c7409124cc71225851c
:104ca0007b070592126621121a2274041222a8e5cb
:104cb000226004790180027900eefaeffb12133ec4
:104cc0007a007b000263cc0592f0a3e4f0a3f0909d
:104cd00007f02274f012232a74fe1222c312255efa
:104ce000eafeebff8c278d281213f2e970047a8616
:104cf000801f124e3960047a818016ee4f70047a5c
:104d000080800e1218308a258b26ea452670067a96
:104d1000827b01805474121222fce0f8c394145078
:104d2000048821800375211474060592f0a3eef027
:104d3000a3eff09007f01225857b070592126621fc
:104d4000121a2274041222a8852723852824782386
:104d5000122572a921eefceffdaa25ab2612134afb
:104d600074021222a87a007b0002472874f41223ee
:104d70002a74fe1222c312255eeafeebff1213f222
:104d8000e970047a86801a124e3960047a818011a3
:104d9000ee4f70047a808009121830ea4b70067a60
:104da000827b01802a7407124e34eef0a3eff08567
:104db0008482858583a3a3a3eef0a3eff0e584248a
:104dc000171255e9e4f0a3f01214ca7a007b00022e
:104dd00063cc74f412232a74fe1222c312255eeaf5
:104de000feebff1213f2e970047a86801a124e3934
:104df00060047a818011ee4f70047a808009121865
:104e000030ea4b70067a827b0180267405124e349c
:104e1000a3a3a882a983eef0a3eff088828983126e
:104e200058b10592a3e8f0a3e9f01214ca7a007b06
:104e3000000263cc124f9da322125bec0592e0228c
:104e400074f212232a74fe1222c312255e8a218b69
:104e500022ecfeedff1213f2e970047a8680121242
:104e60004e3960047a818009121830ea4b70067a54
:104e7000827b01801d7404124e34e521f0a3e522eb
:104e8000f00592a3a3a3eef0a3eff01214ca7a00e8
:104e90007b000245bf74f012232a74fe1222c31253
:104ea000255e8a278b288c258d261213f2e9700443
:104eb0007a86802e124e3960047a8180257414120d
:104ec00022fc0592e0ff74026f600974106f6004a9
:104ed0007a80800e1218308a238b24ea45247006cb
:104ee0007a827b01803474030592f08f2175220051
:104ef0000592782112257274141222fc124fc612e8
:104f00001d5874021222a8124fa9858482858583b8
:104f1000124fb71214ca7a007b0002472874f012ad
:104f2000232a74fe1222c312255e8a278b288c2521
:104f30008d261213f2e970047a86802e124e3960a3
:104f4000047a81802574141222fc0592e0ff740219
:104f50006f600974106f60047a80800e1218308ab6
:104f6000238b24ea452470067a827b01802c8f21d2
:104f7000752200782112257274141222fc124fc679
:104f8000121d5874021222a8124fa97401124f9dcb
:104f9000124fb71214ca7a007b000247280592f01c
:104fa000858482858583059222e5842415f582e433
:104fb0003585f583eff02212507be525f0a3e52639
:104fc000f0aa23ab2422125f40e5842405fae435dd
:104fd00085fb2274f012232a74fe1222c312255e6e
:104fe0008a278b288c218d221213f2e970047a868d
:104ff0008029124e3960047a81802074161222fcb6
:105000000592e0ffc3941140047a80800e1218309c
:105010008a258b26ea452670067a827b01805974a0
:10502000121222fc1258b1e5842417f582e435856a
:1050300012611674020592f0e58424151255e9ef09
:105040000592f08f237524007823122572741612ae
:1050500022fc124fc6121d5874021222a8858482a7
:1050600085858312507be521f0a3e522f0aa25abcc
:10507000261214ca7a007b00024728a3e527f0a372
:10508000e528f00592a3a3a32274f112232a74fe4b
:105090001222c312255e74fc12229274021222fca8
:1050a000126a75e5c7f527900368e0f5c774021228
:1050b00022fc127960853284853385e5820592f081
:1050c000a3e583f08532828533830592126aadfab7
:1050d00074021222fc0592e02a12521f059290f7e8
:1050e0009de0f525ff741dc39af5268e228e218042
:1050f000080522efc313ff052190f79ce0fce52192
:10510000c39c5043eec39526503d12523070e8efd9
:10511000a2e050dfa3a3a3a3a3e0640270d375238e
:10512000027524007823122572125f35e5842ef86b
:10513000e43585f9e82402fae439fb121d587402bb
:105140001222a80e0e80acee6013858482858583c2
:10515000a3ef6004740280027403125208e5227007
:10516000030252008532828533835392fe126aad68
:10517000f8741dc398fa95e0fbc3ea9410eb940011
:10518000a2d265d033407974021222fc0592e02845
:1051900012521faf258e218006efc313ff0521e5b4
:1051a00021c39c5041e526603d5392fe125230705f
:1051b000ecefa2e050e3a3a3a3a3a3e0641070d993
:1051c0007523108e247823122572125f35e584240e
:1051d00002fae43585fb121d5874021222a87e10d3
:1051e00074ff2522600e8584828585835392fea3f9
:1051f00074068009858482858583a374071252080a
:105200008527c774040271a0f074012ef80592f08e
:10521000088532828533830592126ab128f022f51f
:1052200084a3e03400f5850592a3a3a3a37e002206
:1052300090f7961279aae52175f006a4faabf0e88a
:105240002afae93bfb8a828b83e02274f012232a3c
:1052500074fe1222c312255e74f9122292853282e4
:10526000853383ecf0a3edf08a278b28e9fe7522c5
:10527000001270958a828b830592a3a3a3a38582d3
:105280002385832474026e600caa23ab24121a5265
:10529000e960027e0274191222fc12651a7410056c
:1052a00092f074026e600302532f8523828524835b
:1052b00005921258b1e8700374286970567f007423
:1052c000191222fc12651a740a0592f0e5c7c0e0b3
:1052d00074041222fcd0e00592f0900368e0f5c758
:1052e000127095059290f79ce0f526f582ac8285c8
:1052f000278285288312719750030254678527827d
:10530000852883a3a3125f4ac3ec9ae49b50258ca3
:10531000258024740168700374286970047f0180fb
:105320009e740368700374286970047f028090790a
:1053300000025474eaf525e814f521801274021273
:1053400022fc12795de521f0a3e4f015210521e5a9
:1053500021c3952540030254581258ae74051222f9
:10536000fc126118852182a8827900e875f006a4f4
:10537000faabf074051223060592e02af582a3e049
:105380003bf583ac82ad830592e06f70c0852282cd
:10539000aa828532848533850592e02a125a5b748d
:1053a00002122306e5820592f0a3e58312702de038
:1053b0002404f527126aa7f5236009e52765236011
:1053c00003025458852723ea12701b4003025458e5
:1053d000e527f0eaf522e8240108500109740212d9
:1053e00022fc126518e80592f0a3e912702d125cf8
:1053f000e31225728c828d83125f3974041222fcb1
:10540000127055121d5874021222a88029e52175c8
:10541000f006a4f8a9f074051222fc5392fe126162
:105420001ef8700302533d740168700302533de897
:105430006f700302533d0521e521c3952640cee55b
:10544000266521600302533d74021222fc12795d2d
:1054500074fff0a3f002534de522600b7419122281
:10546000fc5392fe12709b74041222fc5392fee0d5
:10547000f5c7a922740702472574f712232a74fe80
:105480001222c312255e1245b2121a160592e0f8d6
:10549000740668600a7408686005740968701ce422
:1054a0001255e07c0012484d0592e0f9121ba890bd
:1054b0000363e06e6005eef91213f202668e74f279
:1054c00012232a74fe1222c312255e8a258b26ec33
:1054d000ffedfeec24010ce43400fd1213208a845d
:1054e0008b8574101222fc125f3cec4d701deff99d
:1054f0001215bae9fec3941540027e147d00eefc3d
:10550000eff9aa84ab851215d2801aeec394154028
:10551000027e148e217522007821122572121d58e8
:1055200074021222a8eef9aa25ab26121326024510
:10553000a485328285338302669774f712232a7416
:10554000fe1222c312255e8a848b8512557c60234d
:105550007b08126621121a1612557cfae4f09003a9
:1055600063e0fef9121b66900363e06e6005eef9de
:105570001213f2aa84ab8512183680b512558f909b
:1055800003d3e028f8a3e039f9e81272bde0221253
:1055900055932212559722900363e075f037a4f8d3
:1055a000a9f02274f712232a74fe1222c312255e78
:1055b000124e39640b6026e58424191255e97401f2
:1055c0000592f0125be8740b05921255e0f9121b7c
:1055d000a2900363e06e6005eef91213f202668e8c
:1055e000f00592900363e0fe22f582e43585f583b1
:1055f0002274f012232a74fe1222c312255e74fd57
:1056000012229274011222fcecf0a3edf089258a9b
:10561000228b277a817b01e52275f006a4f8a9f098
:1056200090f796126e3df5850592a3a3a3e0f5824f
:10563000a3e0f583858284858385a3e08532848514
:105640003385f00592e0f52875210074ff6525602b
:105650000785252180020521900364e0f8e521c338
:10566000984003025783852182a882e875f06fa4d1
:10567000fcadf09003651258bfe584246e1255e925
:10568000e0a2e050d1e8900363f0900361e584f07c
:10569000a3e585f0853282853383e0131313541f0d
:1056a000fee05407f526e528a2e4503de8125788ad
:1056b000f8ed39f91263e2a826b800028004c3139a
:1056c000d8fca2e05023121830ea4b60617401123a
:1056d00023060592122589ad27ac22791b12155a93
:1056e00074021222a87a007b00e528a2e54003029a
:1056f000577a900363e0125788fced39fdec2422c1
:10570000f582e43df583e0ac26bc00028004c313bf
:10571000dcfca2e0506412557f60047a8180111293
:1057200018308a238b24ae23af24ee4f70067a8282
:105730007b01804f05929007f01225857b0805922a
:10574000126621121a2274041222a874012522c0a2
:10575000e01263ed1272bdd0e0f074011223060571
:1057600092122589ad27ac22791deefaeffb1215b6
:105770005a74021222a87a007b0074ff6525700318
:105780000256567403026afc75f037a4f8a9f0902b
:1057900003d3e02efca3e03400fdec282274f012c9
:1057a000232a74fe1222c312255e89218c278d289c
:1057b00075220074121222fce0fea3e0ff8e828f9d
:1057c00083e0f525e5c7f524125a82f52690f79c6b
:1057d000e0f8e526c39840097522018e828f838008
:1057e00023e526125f4e70098524c77a887b0180e5
:1057f00049a9261215bae98e828f83f0c3952150ec
:1058000007752207e4f08022a821e0c398f0f8c3ce
:105810009525500488238003852523e523f0ad21b9
:10582000fca926aa27ab281215d28524c7e5226039
:1058300005fa7b0480047a007b0002472874f61284
:10584000232a74fe1222c312255eeaf8ecfaedfb5d
:10585000752100e5c7fe900368e0f5c7e814fd7404
:105860000c1222fc1258b190f79ce0fcedc39c4056
:105870000b75210188828983e4f0801eed1258b5f2
:105880000592e0fca2e75004741080027402888242
:1058900089830592f0ecf9121a5e8ec7e521a2e029
:1058a0005005fa7b0480047a007b000242fb90f7eb
:1058b000961279aa2275f006a4fcadf090f796e056
:1058c0002cf584a3e03df5852274f612232ae9ff26
:1058d000eaf8ebf9e5c7fe900368e0f5c7740a1231
:1058e00022fce0fbc3941540067a807b0180169071
:1058f000f79ce0c398e49950067a017b0480061a6d
:10590000eff912156c8ec702430974f012232a7442
:10591000fe1222c312255e74fe1222928532828507
:105920003383ecf0a3edf089257e00125a7cf5223a
:1059300090f79ce0c395225003025a4ce52275f083
:1059400006a4f8a9f0059290f796125a6785822767
:105950008583280592a3a3e0fc24fa600a1460075b
:1059600024fb6003025a4a74141222fce0f52174ed
:105970000c6c7003025a308527848528850592a314
:10598000a3a3e0f582a3e0f583852584aa8485821c
:1059900084858385a3a3a3a3e0f8852123ea252397
:1059a000f523e43400f524e89523e49524c365d079
:1059b0003350057e0d025a4d0592a3a3858284853e
:1059c0008385852182a882790074066c88238924c6
:1059d0007823701b12257274021222fc125a6efa7e
:1059e000a3e03400fb121d5874021222a880311269
:1059f000257274021222fc125a6e125a5baa82abf2
:105a000083121d5874021222a8e5212525c0e085c5
:105a10002782852883a3a3a3126abcd0e00592f055
:105a20008527828528835392fea3a3e0640c700b24
:105a3000853282853383125f3c80047c007d00ab1d
:105a400021aa2279ff12156c80050e0e0e7f0485a7
:105a500026c7eefaeffb7402024725f582a3e03475
:105a600000f5830592a32212610b39f58322125aa5
:105a7000732a22e0fca3e0fd0592e0227f00e5c747
:105a8000f526900368e0f5c7ea142274f412232a7d
:105a900074fe1222c312255e8c848d85e9ffe5c752
:105aa000f521125a82fe90f79ce0c39e50047901c2
:105ab0008034740e1222fce0f52260047a02800227
:105ac0007a80eef91215b4e9701ce4f523f5247818
:105ad00023122572ad22effcaa84ab85eef91215d4
:105ae000cc74021222a88521c702464374f3122304
:105af0002a74fe1222c312255e8a218b22125be8d1
:105b00008a828b83a3a3a3a3a3a3a3a3a3e0700f61
:105b1000125cec121620ea4b607812183680f1e520
:105b2000c7fe900368e0f5c7e584242bf523e43530
:105b300085f52485238285248312660d6052888230
:105b40008983a3a3a3a3a3a3a3a3a3aa82ab83e054
:105b5000ff8a848b850592a3a31225897d01888203
:105b600089830592a3a3e024f7fcea2404fa5001f8
:105b70000b74ff2ff91215cc74021222a8e9f52537
:105b8000aa23ab24121620121836e525702080a314
:105b90008ec7852182852283a3a31279327419f0de
:105ba0007900aa21ab22121326802a121836125c21
:105bb000ec121620ea4b70f3e525f5237823122525
:105bc000768f23ac237d007918aa21ab2212137a99
:105bd00074011222a88532828533831225667402ed
:105be0001222a87f05022402125bec221255939028
:105bf00003d3125bf622e028f584a3e039f5852271
:105c000074f412232a74fe1222c312255e8a848b36
:105c100085858482858583a3a3a3a3a3a3a3a3a32c
:105c2000ae82af83e5c7f521900368e0f5c78e82a9
:105c30008f83e014f990f79ce0c39950217401f52b
:105c40002178211225768e828f83125f3c7916aae5
:105c500084ab8512137a74011222a80246437a0299
:105c60001215b4e970d91218308a238b24ae23aff1
:105c700024ee4f8521c7700c7a017b0090032e74af
:105c800008022163ac84ad85125cec121626858473
:105c900082858583a3a3858221858322125ce312fa
:105ca0002572e5842404fce43585fdee2404fae441
:105cb0003ffb121d5874021222a88521828522837f
:105cc000e08e828f83a3a3f08e828f83a3a3a3a3ee
:105cd000a3a3a3a37417f07900eefaeffb12132627
:105ce000025c5be0f5237524007823221263f12423
:105cf0002bfae439fb2274f112232a74fe1222c318
:105d000012255e74fb12229274031222fc126a7531
:105d10008927ecfeed125e0e74011222fc1261184e
:105d2000e5c7f521900368e0f5c78e828f83a3a3b2
:105d3000e0f8ee126a483ff583a3a3a3a38582256a
:105d4000858326741bc398f5228025e9c522c39557
:105d500022f5228e828f83a3a3e029f0e52529f581
:105d600025e43526f52674011222fc125e0904f0a2
:105d700074011222fc125e09fac395275071e522c4
:105d8000606da832a933882389247823122572856f
:105d900025238526247823122572a9227c007d00e4
:105da000ea2afae433fb74071222fc126127faa3f1
:105db000e0fb1215a274041222a885328285338377
:105dc000e06088853284853385059212258d7404c0
:105dd0001222fc0592126aadfca3e0fd790eeefae8
:105de000effb12137a74011222a88521c7800c855b
:105df00021c77900eefaeffb12132674051222a8d0
:105e00008532828533830271ac127987e022ff12da
:105e10005e1322125e17221255979003d3e028f8e2
:105e2000a3e039f92274f012232a74fe1222c3125d
:105e3000255e8c218d22e9fe125a7cf52574141200
:105e400022fce0f527a3e0f52890f79ce0c3952518
:105e5000500b8527828528837401025f0c7a01a983
:105e6000251215b4e9852782852883f06003025f37
:105e70002d852582aa827b00ea125f4e70770592fb
:105e8000125be8a884a985126a57705e7412122208
:105e9000fc125f3ce82434f582e439f583ecf0a38e
:105ea000edf0e82436f582e439f583eef0900363f3
:105eb000e0ffeef5237823122576ac21ad22ea240b
:105ec000010a50010b900363e0f9121b7874011270
:105ed00022a8900363e06f6005eff91213f27a01d4
:105ee0007b009003a07408022163126a62852782f6
:105ef0008528838017a9251215bae9ffc39521e4e7
:105f00009522500b8527828528837407f0801ee533
:105f100021cfc39fffeec39f5002eeffad21effce8
:105f2000a92574121222fc125f4a1215d28526c7c7
:105f3000eff9026aff8a828b83a3a3a3125f402238
:105f4000e0fca3e0fd228e828f831279fe2275f0a1
:105f500006a4f8a9f090f796126489a3e0640c22d5
:105f600074f112232a74fe1222c312255e74f812f1
:105f70002292126a6f74061222fcecf0a3edf089f3
:105f8000277f00e5c7f52612703af52212705f50a0
:105f9000030260f712707650048c218003eaf52129
:105fa000e814fe85328285338312796f74041223dc
:105fb00006e5820592f0a3e583f080138884898545
:105fc0000592e0f8a3e0f9e80592f0a3e9f00eeeff
:105fd000c3952140030260f75392fe1258ae74023b
:105fe0001222fc126118ee75f006a4f8a9f07402f2
:105ff0001222fc12611ef525a2e7500b126e22122e
:10600000227f126e428003126e30f585eaf5237806
:1060100023122576ac84ad85790274051222fc1218
:106020005f4a121a5874011222a8e960a17a01ee9f
:10603000f91215b4e97097ac27853282853383e075
:106040002406faa3e03400fbeef91215aee9700362
:10605000025fceeff87406122306126101a882a92e
:1060600083efc3941240030260f774042fff8e2362
:10607000e5232401fae43400fbea0592126a7680f3
:1060800017ee75f006a4faabf074021222fc5392dc
:10609000fe1261276525601c0eeec3952240e2e5e5
:1060a000226e7010888289835392fea3a374fff03e
